:020000040800F2
:1000000000040020C10100081108000811080008C0
:10001000110800081108000811080008110800085C
:10002000110800081108000811080008A1040008C0
:10003000110800081108000811080008110800083C
:10004000110800081108000811080008110800082C
:10005000110800081108000811080008110800081C
:10006000110800081108000811080008110800080C
:1000700011080008110800081108000811080008FC
:1000800011080008110800081108000811080008EC
:1000900011080008110800081108000811080008DC
:1000A00011080008E103000811080008C103000856
:1000B00001040008A1030008110800081108000845
:1000C00011080008110800081108000811080008AC
:1000D00011080008E1070008C1070008110800081E
:1000E000110800081108000811080008110800088C
:1000F000110800081108000811080008110800087C
:10010000110800081108000811080008110800086B
:10011000110800081108000811080008110800085B
:10012000110800081108000811080008110800084B
:10013000110800081108000811080008110800083B
:10014000110800081108000811080008110800082B
:10015000110800081108000811080008110800081B
:10016000110800081108000811080008110800080B
:1001700011080008110800081108000811080008FB
:1001800011080008110800081108000811080008EB
:1001900011080008110800081108000811080008DB
:1001A00011080008110800081108000811080008CB
:1001B00011080008110800081108000811080008BB
:1001C00072B6224880F30988022080F31488BFF3B6
:1001D0006F8F01F065F900F0B3FE1D481D491E4AFE
:1001E00091423CBF41F8040BFAE71C49174A91427F
:1001F0003CBF41F8040BFAE719491A4A1A4B9A42D4
:100200003EBF51F8040B42F8040BF8E700201749F1
:10021000174A91423CBF41F8040BFAE701F008F994
:1002200001F036F9134C144DAC4203DA54F8041BB8
:100230008847F9E701F014FD104C114DAC4203DA88
:1002400054F8041B8847F9E701F01AB900080020A8
:1002500055555555000000200004002000040020E2
:10026000F829000800080020B40C0020B80C002079
:1002700068B40020C0010008C0010008C0010008E7
:10028000C0010008000000000000000000000000A5
:100290002DE9F04FC1F80CD0C3689D46BDE8F08F42
:1002A000002383F311882846A047002001F068F856
:1002B00001F09EF800DFFEE70000000000000000F3
:1002C000024AD36843F08003D36070470044004083
:1002D000024AD36843F08003D360704700100140A6
:1002E000836970B51A69DC681440E2B2D243A6078C
:1002F00005461A6103D543681B6903B19847600737
:1003000004D56B689B690BB128469847210704D533
:100310006B681B6A0BB128469847E20604D56B68E8
:100320009B6A0BB128469847E30706D56B689B6824
:100330001BB12846BDE87040184770BD00000000A2
:10034000202383F311880F4B5B6813F4006302D101
:1003500083F311887047EFF309834FF0807243F8FD
:10036000042CA3F1200282F30988074A11689269DC
:100370008968926891428CBF044A054A43F8082C68
:10038000704700BF00ED00E0D0B20020B1020008CD
:10039000B40200080000000000000000000000009F
:1003A00008B50348FFF79CFFBDE80840FFF7C8BF4A
:1003B000B0B20020000000000000000000000000BB
:1003C00008B50348FFF78CFFBDE80840FFF7B8BF4A
:1003D00094B20020000000000000000000000000B7
:1003E00008B50348FFF77CFFBDE80840FFF7A8BF4A
:1003F00094B2002000000000000000000000000097
:100400002DE9F8434FF080452B699B0703D4BDE8E5
:10041000F843FFF795BF00272F61202686F3118848
:10042000DFF87890696AD9F81C30D9F828E09A6822
:10043000CEEB0100904209F11C081CD31968DC685E
:1004400072444145C9F82820C1F80480C9F81C103D
:10045000DF6008BFEF6087F311881869A04786F353
:100460001188D9F81C30696AD9F828E09A68CEEB6F
:1004700001008242E2D9434508D07244521A012A4F
:1004800098BF02224FF080430A445A63002383F34B
:100490001188BDE8F843FFF753BF00BFD0B200207A
:1004A000EFF30983203383F30988002383F3118852
:1004B000704700BF000000000000000000000000C6
:1004C00010B4202383F31188094C0A4B2268196861
:1004D000C31D23F00703891A8B429DBF9B1823601D
:1004E00010460020002383F311885DF8044B704709
:1004F000C80C002064B400200000000000000000D0
:1005000010B4202383F31188037F072B0ED8DFE874
:1005100003F0270D0D2308040D08026A93680133C8
:10052000936090E80C001A60026853604FF0FF344B
:10053000002281680D4B046202771B689A688A4228
:10054000FBD25A684260036000211060586081F35A
:1005500011885DF8044B7047036A00221A60E5E7D2
:10056000002383F311885DF8044B7047D0B200205C
:1005700000228168084B10B4044602771B689A6811
:100580008A42FBD25A6862602360204614605C6035
:100590005DF8044B704700BFD0B20020000000009F
:1005A000F8B50468A04221D00E460746002502E0B7
:1005B0002468A7421AD0E3683343E36016B1226986
:1005C0001342F5D06068A368416B027F0B430A2A8F
:1005D00043630CD00B2AEBD1026A13409A42E7D155
:1005E0000562FFF7C5FF2468A742E4D1F8BD026A9F
:1005F0001342DDD00562FFF7BBFFF4E70000000007
:1006000044F674632DE9F047C658D6F80CA0336859
:10061000DA0582B005469CB200F18280202383F384
:10062000118814F02F0F4AD005F1040805F10C07CA
:100630004FF0000907E0A00673681DD43468A4B227
:1006400014F02F0F3BD02307F5D014F0080F0CBF88
:1006500000218021E00748BF41F02001A20748BFE8
:1006600041F04001630748BF41F480714046FFF705
:1006700097FFA0067368E1D56A69002A3ED02A6A0E
:10068000696A8A4244D06969501C013128626961F3
:1006900013702A6AEB699A4201D3AB692B62EB684B
:1006A0009F42CBD01A68EA6018465760C3F8209082
:1006B000FFF75EFF3468A4B214F02F0FC3D10023FC
:1006C00083F311881AF0800F01D0220637D4630615
:1006D00011D5202383F31188AA6C6B6C9A4254D0F5
:1006E0004FF6BF730AEA03036FF04002F360002382
:1006F000326083F3118802B0BDE8F08704214046E0
:100700000193FFF74DFF2A6A696A019B8A42BAD1B9
:1007100069690029B7D040468021FFF741FF8DE786
:10072000202383F311884FF400710430FFF738FF62
:100730006FF480733360002383F311886EE7202306
:1007400083F31188AB6C6A6C9A4226D0AA6B296C31
:10075000581C0132AA63A86488421F7801D3EB6B4E
:10076000AB642B6B05F13002934209D01968296301
:100770004FF0000E4A601846C3F820E0FFF7F8FE7D
:100780007760002383F31188A1E7AB6B002BA7D020
:10079000281D1021FFF704FFA2E7AA6B002AD5D07D
:1007A000281D0821FFF7FCFE4FF63F730AEA0303FA
:1007B00043F04003F360E4E70000000000000000A5
:1007C00008B50348FFF71CFFBDE80840FFF7B8BDB8
:1007D0001064002000000000000000000000000085
:1007E00008B50348FFF70CFFBDE80840FFF7A8BDB8
:1007F000981500200000000000000000000000002C
:10080000FEE700BF00000000000000000000000044
:10081000FEE700BF00000000000000000000000034
:10082000074B30B41A68996914680877012563602A
:1008300015771C60104630BC9A61FFF729BD00BFD8
:10084000D0B2002000000000000000000000000006
:10085000F0B54B1C87B047D03E4C3F4AA369059387
:100860002546012955F81C3F4FF0804C98BF0221C6
:10087000AB42DCF824600492864655D0A26A9868A0
:1008800031448A1A824238BFCCF83410824204D9EB
:100890001B68121A98689042FAD35968029101AF06
:1008A00001930F605F60039299684FF0FF308A1ADE
:1008B0009A6060627046FFF7B3FF049B83B1E369FF
:1008C000244ABB4217D0029A019B1360019B00216E
:1008D000AB425A60049103D09968039A0A449A6023
:1008E000A369186A07B0F0BD1A4CFFF799FFA36916
:1008F000186A07B0F0BD0199D1610023A9424D608B
:10090000049322D003988B68926A03444FF080408E
:100910008B60416A8A1A9342E2D99B1A012B98BFD5
:1009200002230B444363DBE701AF88190022022353
:10093000A662019502950391E7612762CCF8340025
:10094000CCF81020CCF80C30B4E74FF08042D360E4
:10095000C6E700BFD0B2002001050008000000007B
:1009600069B1084B10B4024644689B69042083E8CF
:100970001400236053605DF8044BFFF769BF4FF02C
:10098000FF307047D0B200200000000000000000DF
:100990002DE9F04F83B004468B4615460193C76995
:1009A0004FF0200888F311880026B146A3680BF1A8
:1009B000010A2046FBB16269A368511C013B6161D9
:1009C000A3609BF800301370236962699A4224BFC8
:1009D000E368636107B1B84789F31188013D06F107
:1009E000010612D088F31188A368D3460BF1010ADF
:1009F0002046002BDFD1204601990093FFF7B0FF7E
:100A0000009B0028D2D083F31188304603B0BDE8A4
:100A1000F08F00BF00000000000000000000000098
:100A20003030FFF7B5BF00BF00000000000000003D
:100A300030304FF0FF33FFF7ABBF00BF00000000C6
:100A4000F8B504460F461646202383F3118803E0C9
:100A5000FFF786FF002819DBA56820463146002DE8
:100A6000F6D06269A368511C013B6161A3601770F5
:100A7000236962699A4224BFE3686361E3690BB149
:100A800020469847002080F31188F8BD85F311882F
:100A9000F8BD00BF000000000000000000000000E2
:100AA0003030FFF7CDBF00BF0000000000000000A5
:100AB00030304FF0FF32FFF7C3BF00BF000000002F
:100AC0002DE9F04F044683B0894693461D46D0F881
:100AD0001C80202787F3118800260197B246B8F1C1
:100AE000000F05D02046C04702E0FFF739FFE0B90C
:100AF000A76820462946002FF7D0A269A368511C99
:100B0000013BA161A360137809F8013B2369A26945
:100B10009A4224BFE368A3618AF311880136B34582
:100B200005D0019B83F31188D9E787F311883046FC
:100B300003B0BDE8F08F00BF00000000000000001F
:100B40000C30FFF7BDBF00BF000000000000000038
:100B50000C304FF0FF33FFF7B3BF00BF00000000C1
:100B600070B520230E46044683F31188C3692BB168
:100B7000984703E0FFF7F4FE002815DBA568204640
:100B80003146002DF6D0A169A36825694A1C013BB6
:100B9000AA42A360A26128BFE368087828BFA361C6
:100BA000002383F3118870BD85F3118870BD00BFE9
:100BB0000C30FFF7D5BF00BF0000000000000000B0
:100BC0000C304FF0FF31FFF7CBBF00BF000000003B
:100BD0000B7873B110B40022441E04F8013F11F8E1
:100BE000013F0132002BF8D1002383545DF8044B00
:100BF00070471A4600238354704700BF000000006E
:100C000003783BB10346002013F8012F0130002A7E
:100C1000FAD170471846704700000000000000003D
:100C20000EB42DE9F04F86B00FAD0DF10D0355F860
:100C3000049B029503AA9B1A824601934FF0000879
:100C4000CB469BF800100BF1010379B1252913D095
:100C5000DAF800209B469268504690479BF80010B7
:100C600008F101080BF101030029EFD1404606B05D
:100C7000BDE8F04F03B070479BF801202D2A03BF59
:100C80009BF802200BF102034FF001094FF000091D
:100C9000302A03BF5A78013330272027591C0026F9
:100CA00006E02B7804359BF8002003EB4006013169
:100CB000A2F13003DBB2092B8B4606EB8600F2D99A
:100CC0002A2AEED02E2A4FF0000143D002F0DF0393
:100CD0004C2B4ED0A2F14400342800F2F780DFE81C
:100CE00010F0EA00F500F500F500F500EA00F50067
:100CF000F500F500F500F500E800F500F500F50059
:100D0000F500F500DD00F500F500F200F500F50056
:100D1000F500F500F500F500F500F500F500F5002B
:100D2000A100EA00F500F500F500F500EA00F50085
:100D3000F500F500F500F500E800F500F500F50018
:100D40007100F500DD00F500F500F2002B780435A8
:100D500003EB40011BF8012BA2F13003DBB2092B9E
:100D600001EB8100F4D92A2AF0D002F0DF034C2BEA
:100D7000B0D19BF80030002B00F0A880A3F1440212
:100D80000BF1010B342A00F2A080DFE802F0949E00
:100D90009E9E9E949E9E9E9E9E929E9E9E9E9E87A0
:100DA0009E9E9C9E9E9E9E9E9E9E9E9E9E4B949EC2
:100DB0009E9E9E949E9E9E9E9E929E9E9E1B9E8703
:100DC0009E9E9C002C685A4B002C08BF1C46043584
:100DD0002378002900F09480002B00F096800139E0
:100DE000204601E0013903D410F8013F002BF9D16E
:100DF000001B361A431E202726EAE676B9F1000FBB
:100E00001FD0002B009334DA002E3FF41AAF344683
:100E1000DAF8003050469B6839469847013CF7D1D4
:100E2000B0440EE72B688DF80C30019B0435184652
:100E30002027013B03AC361A26EAE676B9F1000F0B
:100E4000DFD10093C6F10009B9F1000F45D0217838
:100E50002D2947D04E46DAF8003050469B68394677
:100E600098470136F7D1009B002BC9EB0808FFF625
:100E7000E8AEDDF80090DAF8003014F8011B9B684A
:100E800009F1FF3950469847B9F1FF3FF3D1009B74
:100E900008F10108002BA8BF9844B5E70A22296889
:100EA00003A8043500F074FE03ABC01A431E03AC64
:100EB000C1E70822F3E72968002905F104052EDBC4
:100EC00003A80A22EEE71022E9E71A46019B8DF8F3
:100ED0000C20184603AC013BADE7009B002B4E46AF
:100EE000C7DAAEE6302FB5D1DAF8003050469B684D
:100EF0009847009B013B013408F101080093A9E7E2
:100F000047F6FE71002B7FF46BAF26EAE676B9F167
:100F1000000F0BD14FF0FF330093202792E72D23D2
:100F200049428DF80C300DF10D00CAE720276BE720
:100F30006027000800000000000000000000000022
:100F40002849294B4FF080504FF4004208641A6042
:100F50000B6843F001030B600A68224B9207FBD534
:100F60009A6822F003029A609A689A6019468B6820
:100F70001C4A13F00C03FAD1116801F0F901116059
:100F80009360536F43F001035367536F15499807FC
:100F9000FBD5164B4B600B68134A43F080730B6014
:100FA00053685904FCD50F490A680E4B9201FBD5D2
:100FB0000F4A1049996040F2027111609A6842F03C
:100FC00002029A601A469368064903F00C03082B44
:100FD000F9D14B6C43F480434B644B6E43F4804334
:100FE0004B66704700380240007000401054010703
:100FF000003C0240001088380000000000000000A3
:101000000378012BF0B552D0836900221A605A632D
:101010009A63DA631A645A6241688468CA680E681F
:101020004069CD6AB0FBF6F002F00F02013C0138D6
:10103000012A9862DC625D6037D0022A33D142F027
:101040000102486900F00F00012829D0022825D0AC
:10105000C86900F00F0001281DD0022819D0486A85
:1010600000F00F00012803D0022803D142F40052FF
:1010700042F48052096B1A62012521F0FF0200241C
:101080004FF4004085215D611C61DA60586419608D
:10109000F0BD42F4007242F48072E0E742F02002B8
:1010A00042F01002D4E70022CBE70022C7E7214B31
:1010B000984208D0204B984225D0836946F66802B2
:1010C0009A61DA61A8E71D4A1D4B516C1D4F41F032
:1010D00001015164516A70254FF000764FF00064B1
:1010E0004FF0000E41F001015162C2F824E083F894
:1010F0001953C3F880611E6083F81B53C3F8804105
:101100001C604761D9E70D4B0D4A196C0D4D41F03C
:1011100002011964196A4FF00054002741F00201DE
:10112000702619621F6282F81D63C2F88041146044
:101130004561C2E794B20020B0B2002000380240FE
:1011400000E100E000BD010500000000000000001B
:101150002DE9F04FC2F3411C02F0030EC2F38009E7
:10116000C2F3C1080027C2F3C3124FF00F0B4FF0B8
:10117000010A0FE0046A24EA03031D4305624908DB
:1011800039D04FEA49094FEA88084FEA8C0C4FEAF8
:101190008E0E0137CB07F2D543680AFA07F423EA2B
:1011A000040343EA0903436003257C00836805FACE
:1011B00004F4E443234043EA08038360C56807F06E
:1011C0000703254045EA0C059B00BEF1020FC560F0
:1011D00002FA03F50BFA03F30FD00668344044EA31
:1011E0000E04072F0460C5D9446A24EA03031D4393
:1011F00049084562C5D1BDE8F08F072F0AD8066AB5
:1012000026EA03031D43056203681C4044F0020400
:101210000460B4E7466A26EA03031D434562F3E728
:1012200070B4202383F311882B4C027A002908BF65
:101230002146012A29D044F67463284AC3589342B0
:1012400037D002F58062934233D00C68244AB2FB57
:10125000F4F29A608A88CC88098942F4045244F0F6
:10126000400442F02C0241F00101A4B292B289B2D2
:1012700000251C6159610224DA601D601A685B68F0
:10128000047285F3118870BC7047164A904216D0DC
:10129000154B9842CFD1154D154B2A6C4024C026D2
:1012A00042F400322A6483F82663C3F884415C6008
:1012B000C1E70C680F4AB2FBF4F29A60CAE70B4D23
:1012C0000B4A6C6CC02644F010046C6482F82563F1
:1012D000C2F884315360AEE7502700080010014087
:1012E00080DE800298150020106400200038024043
:1012F00000E100E000BD010500000000000000006A
:10130000202383F311888369DA68D10706D442F079
:101310000102DA601A6902F001021A61002383F304
:10132000118870470000000000000000000000006D
:101330000E4B0F495A688368F0B44F6F4168C66816
:10134000D0E90445D31ADB1BE4180268836045F139
:1013500000058B4206F1010688BF43609342C660D8
:10136000C0E9044538BF0360F0BC7047001000E0DE
:10137000D0B20020000000000000000000000000CB
:1013800038B52022034682F311880E4A9469606AB8
:10139000236204F12405A84206D003686362FFF7C4
:1013A000E7F8606AA842F8D1637F9B0704D16369BC
:1013B00022691A61226953610F20BDE83840FFF7A6
:1013C0002FBA00BFD0B200200000000000000000D3
:1013D00008B50146202383F311880820FFF738FA67
:1013E000002383F3118808BD000000000000000006
:1013F0000D4A106870B403689469136001260025D3
:10140000A1685A6006779061257700E01B689A68AA
:101410008A42FBD85A6862602360214614605C608F
:1014200070BCFEF735BF00BFD0B200200000000046
:10143000F0B4114E002506F1800796E81A00A34289
:101440000DD204391A4651F8040F42F8040BA24297
:10145000F9D3DA43144424F0030404342344F26837
:10146000934203D243F8045B9342FBD31036BE424F
:10147000E3D3F0BC704700BFC027000800000000A5
:10148000FEE700BF000000000000000000000000B8
:10149000704700BF000000000000000000000000D6
:1014A000704700BF000000000000000000000000C6
:1014B000F0B5514E96E80700ADF54F7D06AD85E8D5
:1014C00007000021582209A800F0E2FE06F164039B
:1014D00093E8030038AF87E803004FF4147200214B
:1014E00006F52F763AA800F0D3FE96E80700DFF85D
:1014F0001CE101AE03C69EF800103270002463297F
:101500008DF80D408DF80E408DF80F408DF810408D
:101510008DF811408DF812408DF813408DF814406D
:101520008DF815408DF816408DF817405ED001A952
:10153000384600F08DFE31490DF12300FFF748FBDE
:101540002846FFF75DFB2E4A2E4913780988295259
:101550002BB1002312F8011F01330029FAD11FA972
:10156000DFF8ACC00E468E4600278CFB0324DA174A
:10157000C2EBA40202EB8204A3EB440330330EF867
:10158000013B01371346002AEFD1CA550F780C46AC
:101590000FB915E0734614F8012F03F1010E002A6C
:1015A000F8D16BB1CC1800E0377894F800E006F879
:1015B00001EB0132C2EB030E964504F80179F3DC2E
:1015C00001302844FFF704FB2846FFF719FB0E4BB8
:1015D0002A1819889B7829522846937000F000FB3E
:1015E000074800F0FDFA0DF54F7DF0BD0DF1E70065
:1015F0000349FFF7EDFA9AE780240008B80C0020B1
:10160000BC0C002068270008AC280008C50C00208E
:101610006766666600000000000000000000000031
:101620002DE9804889B000AFADF5806DE9462026F0
:1016300086F31188DFF85CA2DFF8E881DAF8183069
:101640003B61BB19D8F8042043F8142D01204FF05A
:10165000FF3100227861F961C8F80430BA6182F381
:10166000118801250FE06FF0010213400024CBF830
:10167000343084F3118886F31188BB69BC6184F32C
:1016800011885A0712D4DAF818B086F31188DBF8FB
:101690003430D907E7D4CBF820500A20FFF7C0F840
:1016A000DBF8343003F00102D243DEE7D8F8003033
:1016B0005C485B690021984705460120FFF788FEDA
:1016C0006B1C59495948EAB208D0FFF7A9FAB4F59A
:1016D000806FEBDA09F804500134E7E7002548464B
:1016E000534909F8045000F08BFA83460028B8D01B
:1016F0004846504900F084FA0378632B0446B0D181
:101700004D494E4A4948FFF78BFA4D4A9BF8053040
:10171000557013704B4AA37894F800E01370E37887
:101720005370237993706379D370A3791371E3793C
:101730005371237A9371637A434C3F4984F800E0F4
:10174000404C424A3948E3712572FFF769FA404933
:101750003B4A3648FFF764FA37493E4A3348FFF7B9
:101760005FFA22463A493148FFF75AFA2346A078F1
:1017700059799A79E578DB7924793871381DBC710B
:1017800039727A72BB727D7100F0D2FD044607F1A6
:10179000080000F0CDFD7F2C83464FEAC40427DD0E
:1017A0002D4B2E4D1D60A4F2FF3420482C492D4BAB
:1017B0002D4D22461D60FFF733FA21462B4800F0DD
:1017C000D7F9BBF17F0F224618482549284B19DC71
:1017D000284C1C60284B294C1C60FFF721FA4FEA6B
:1017E000CB010131264800F0C3F9FFF761FE38E76D
:1017F000194B244D1D60013422460C481849194BE1
:10180000214DD7E7214C1C601B4B214C1C60FFF77E
:1018100007FA4FEACB01A1F2FF31194800F0A8F90D
:10182000E3E700BF981500206C2700081064002033
:10183000B4270008702700087427000878270008DC
:10184000B80C0020BC0C0020C50C0020902700081C
:101850009C270008A027000840B400205119000868
:10186000AC27000888B200208119000894B200203B
:101870008CB20020811A000890B20020511A000892
:10188000B0B20020E11A0008B11A0008B11900082E
:10189000E1190008D0B200200000000000000000A4
:1018A000014B5B6883607047001000E0000000009F
:1018B0002DE9F0410546174B45F8043B00F59C44E3
:1018C00000F51D53243300F154024FF0000E00F1D7
:1018D0000C0700F130064FF0010842F2107C74341E
:1018E000C0F814E04560C062C164006580F80880FB
:1018F000C0F828E0C0F838C00464C361C3638364DF
:101900004364826142620262C760076106634663A4
:10191000BDE8F08160280008000000000000000021
:10192000202383F311888269D368990705D443F093
:1019300002036FF00201D3601161002383F3118869
:10194000704700BF00000000000000000000000021
:10195000084B10B4DA685C6898681968012303FAC8
:1019600002F2A34092B29BB242830B835DF8044B18
:10197000704700BF44B400200000000000000000D9
:10198000084B10B4DA685C6898681968012303FA98
:1019900002F2A34092B29BB242834B835DF8044BA8
:1019A000704700BF44B400200000000000000000A9
:1019B000084B10B45A69DC6918699969012303FA64
:1019C00002F2A34092B29BB202834B835DF8044BB8
:1019D000704700BF44B40020000000000000000079
:1019E000084B10B45A69DC6918699969012303FA34
:1019F00002F2A34092B29BB242834B835DF8044B48
:101A0000704700BF44B40020000000000000000048
:101A1000014B1B68184700BF8CB20020000000007B
:101A2000014B1B68184700BF90B200200000000067
:101A3000014B1B68184700BF40B4002000000000A5
:101A4000014B1B68184700BF88B20020000000004F
:101A5000084B10B45A69DC6918699969012303FAC3
:101A600002F2A34092B29BB242834B835DF8044BD7
:101A7000704700BF44B400200000000000000000D8
:101A8000084B10B45A69DC6918699969012303FA93
:101A900002F2A34092B29BB242830B835DF8044BE7
:101AA000704700BF44B400200000000000000000A8
:101AB000084B10B45A68DC6818689968012303FA67
:101AC00002F2A34092B29BB242834B835DF8044B77
:101AD000704700BF44B40020000000000000000078
:101AE000084B10B45A68DC6818689968012303FA37
:101AF00002F2A34092B29BB242830B835DF8044B87
:101B0000704700BF44B40020000000000000000047
:101B1000144B816870B49D690446A8680022814214
:101B200022620BD822771B689A689142FBD95A68C7
:101B30006260236014605C6070BC70472A771A464C
:101B4000126891688842FBD95068686001262A6053
:101B5000056055602677294620469C6170BCFEF7DB
:101B600097BB00BFD0B200200000000000000000C2
:101B7000202383F31188C368826943F00103C360A3
:101B80000023516383F31188704700BF00000000F9
:101B9000F0B400F10B073C460D46B1FBF2F602FB38
:101BA000161101F13003392BC8BF01F13703DBB245
:101BB00004F8013DB5FBF2F53146002DEDD13A1B9D
:101BC000024401E014F8013F00F8013B9042F9D1D2
:101BD000F0BC7047000000000000000000000000A2
:101BE00008B501460448FFF71BF841F28830BDE80C
:101BF0000840FFF7EDBB00BF981500200000000073
:101C00004B78F0B44F1C3BB33B46064613F8012F0C
:101C10000136002AFAD13378CBB10378D3B10A78F0
:101C2000B2B193420ED105463B4604E013F8014B96
:101C300074B1A24206D115F8012F1C46002AF5D135
:101C400023782BB116F8013F0130002BE5D118465F
:101C5000F0BC70470C46F3E70646DCE700000000E6
:101C6000B94BBA4C1A694FF0FF3100222DE9804878
:101C700019611A61586959615A61186A60F0805097
:101C800018621A62586A59625A62196C41F080519E
:101C90001964216841F480712160196F01F4407169
:101CA000B1F5007F8BB003D04FF4803119671A670C
:101CB000DFF898E2A44CDEF80450DFF8F892A44E66
:101CC000DFF8F4B2A348A44BA449A54ADFF8EC829C
:101CD000A44F25F40075CEF80450256B45F01F0580
:101CE0002563D4F850C000254CF01F0C6FF48A6EA9
:101CF000C4F850C04FF6DF7AC9F804504FF4EE4CE8
:101D0000C9F808E0984CC9F80CB04FF42A2EC9F86D
:101D100014A04FF0FF3BC9F820C0C9F824E04FF0F1
:101D2000553CC9F800404FF6FF7E80247560C6F828
:101D300008B0C6F80CC0C6F814E0356275623460AD
:101D40008A4C4560C0F808B0C460C0F814E0056271
:101D5000456205605D60C3F808B0C3F80CC0C3F805
:101D600014E01D625D621D604D60C1F808B0C1F8ED
:101D70000CC0C1F814E00D624D620D607C495560E5
:101D8000C2F808B0D160C2F814E01562556215605F
:101D9000A2F58E320123DFF828C2C8F81820754852
:101DA0007549C7F818C04FF0040244F6746A88F801
:101DB000003088F810203B7001933A74C8F8045042
:101DC000C8F80C507D60FD60FFF772FD694B6B4AEF
:101DD0006B496C4843F80A20FFF76AFD5A4BDFF85D
:101DE000E4E1186C684A6949DFF8DCC140F00100A1
:101DF0001864DEF80800019B40F00100CEF80800EE
:101E00004FF0804042F2CF048462C0F82CB04FF013
:101E1000805485614563C5604560436103600393F9
:101E20006FF07F0381F81C33C1F88041554B0C6083
:101E30009560D2F80CE0564943F80A104FF6FF01BE
:101E40000EEA010141EA0C0C524BC2F80CC0D968F1
:101E5000514C5248646041F08071D9600168A560BE
:101E600041F001014FF0200A4FF01003016004F12E
:101E70001C0ED37704A80023246182F822A000223C
:101E8000C4F824B024606461C4F81CE0CDE90823E0
:101E9000C4F820E0CDF810B0A562656705950695F9
:101EA0000795FFF7FDFC04A8FFF742FA3C483D49BF
:101EB000DFF818B13C4A84F84D5020F0070001903B
:101EC000606960640198CBF8000021F00703606945
:101ED0000699029302F1100E039B61674FF0400CCC
:101EE00004F130019561C2F810E0C2F814E0A56673
:101EF000656684F84E30A5642464C4F838C0C4F81C
:101F00006CC0DFF8CCE0016104F154006161A161B3
:101F100026499560D5606065116004F15800029A09
:101F2000CDF80CC084F84C30A065E0654FF0020B92
:101F3000CEF8002085F3118862B6A2691C49916130
:101F40008AF3118846E000BF00380240007000406C
:101F50000004024000080240000C02400010024051
:101F6000001C0240B0B20020A004802A55555551F3
:101F70005055555598150020D10200080010014019
:101F8000C10200081064002000ED00E000E100E064
:101F900000440040F0ED00E0D0B20020001000E06E
:101FA0006FB400200080012020B40020C10400088C
:101FB00040280008000002400551156494B200203A
:101FC00000040040002004E00003FA05C80C0020D3
:101FD00064B400206169C4F8803004F59672C4F8D6
:101FE000B43084F89630C4F88420019304F1780268
:101FF0007C4B7D48C4F82C01C4F88C10C4F83051D7
:1020000084F894B084F89550C4F8B050C4F8AC503B
:10201000C4F89050C4F88840C4F84C3110460A61A6
:1020200004F19C01626104F1A002C4F89C10C4F8A0
:10203000A020C4F8A420FFF76BFD85F311886B4A3C
:10204000C4F890206A496B48FFF7EAF848464FF415
:10205000007140F28232FFF77BF8484640F282324C
:102060004FF48061FFF774F863486449FFF7D8F8CC
:102070008AF31188624A5B4B6069C2F8C4386149CF
:10208000019BDDF80CC09377C2F8A41802F1280375
:1020900002F6A40E02F124015061C2F8A85882F899
:1020A0001CB05577C2F83CC09563556395611461C7
:1020B000C2F808C00261C2F80CE010465162936297
:1020C000D3626261FFF724FD85F311884E48FFF764
:1020D00087FD4E48FFF784FD4D48FFF781FD4D48D1
:1020E000FFF77EFD4C48FFF77BFD4C4B04244FF07F
:1020F000080C4FF00A0E48465C614FF480711922BB
:102100000524C3F804C0C3F80CE0C3F800909E6037
:102110001E619E61DC61FFF71BF84FF48073A9F824
:102120001A3030464FF480611922FFF711F84FF44E
:1021300080637383304610211922FFF709F84FF0AE
:1021400010037383304651461922FFF701F8344CCF
:10215000DFF8E8C03349344BDFF8E490DFF8E4E01F
:102160003248334AA6F81AA0CCF80090C4F800E030
:1021700008601A608AF311882E4BC8F80430404674
:102180005B68C8F80830FEF73BFFC8F80C5088F8C9
:1021900000B085F311884046FFF7B2F84046294663
:1021A000FFF7E6FC4046FFF7BBFB8AF31188224BA2
:1021B0007B6038465B68BB60FEF722FFFD6087F8F6
:1021C00000B085F311883846FFF79AF8384629465B
:1021D000FFF7CEFC3846FFF7A3FB4FF47A70FFF70A
:1021E000F7F8FAE7A10200080108000880280008B3
:1021F00074080020106400209815002000080020BA
:10220000D00C002021160008882800089428000817
:10221000A4280008B0280008C028000844B4002002
:1022200088B200208CB2002090B20020B1190008C2
:10223000E11900080C0800204008002040B40020EC
:10224000511900088119000800000000000000007A
:10225000027830B432B10346002213F8014F013244
:10226000002CFAD10B784BB18518002405F8013BFE
:1022700011F8013F0134002BF8D12244002383548C
:1022800030BC7047000000000000000000000000AB
:1022900070B4840746D0541E002A41D0CDB2034604
:1022A00002E0621EE4B3144603F8015B9A07F8D11A
:1022B000032C2ED9CDB245EA05250F2C45EA05455C
:1022C00019D903F110022646103E0F2E42F8105C79
:1022D00042F80C5C42F8085C42F8045C02F110021F
:1022E000F2D8A4F1100222F00F0204F00F04103211
:1022F000032C13440DD91E462246043A032A46F8FD
:10230000045BFAD8221F22F003020432134404F0C3
:1023100003042CB1C9B21C4403F8011BA342FBD136
:1023200070BC704714460346C2E700BF00000000BF
:1023300000210A2200F094B8000000000000000014
:102340002DE9F04F444C83460E46D4F800E000E0FF
:102350002646344614F8015B0EEB0500407800F089
:10236000080000F0FF080028F2D12D2D4BD02B2DB6
:1023700004BF7578B41C1BB1102B60D09A4603E0E3
:10238000302D54D00A239A46B8F1000F14BF4FF0F5
:1023900000406FF000400027B0FBFAF9BC460AFB92
:1023A00019000CE0303DAB4219DD7E1C05D0CC4558
:1023B00024D821D00AFB0C5C012714F8015B0EEB3A
:1023C0000506767816F0040FECD116F0030606D059
:1023D000012E0CBF37265726AD1BAB42E5DC7B1C1C
:1023E00016D0C8F100008CEA000040444AB107B1A1
:1023F000611E1160BDE8F08F8542DBDD4FF0FF37D5
:10240000DBE7BDE8F08FB41C75784FF00108B2E748
:10241000B8F1000F4FF0220314BF4FF000406FF0EF
:102420000040CBF80030002AE2D1BDE8F08F2378DD
:1024300003F0DF03582B09D008239A46A4E7302D78
:102440009CD1207800F0DF00582897D14FF0100A77
:1024500065785346023497E78008002000000000AA
:1024600030B4044C0D46134601462A46206830BC61
:10247000FFF766BFB00C0020000000000000000065
:1024800041542B43495053454E443D000000000049
:10249000000000000000000000000000000000003C
:1024A000000000000000000000000000000000002C
:1024B000000000000000000000000000000000001C
:1024C000000000000000000000000000000000000C
:1024D00000000000000000000000000000000000FC
:1024E000000000003C68746D6C3E5F00000000005E
:1024F00000000000000000000000000000000000DC
:1025000000000000000000000000000000000000CB
:1025100000000000000000000000000000000000BB
:1025200000000000000000000000000000000000AB
:102730000000000000000000000000005F3C2F6867
:10274000746D6C3E000000000000000000000000FE
:1027500000C2010000000040000000000000000076
:10276000286E756C6C2900002C00000025630000A9
:10277000633D0000257300005265636569766564FA
:102780002068747470207265717565737400000040
:10279000436C69656E742069643D000025730A000E
:1027A000436F6D6D616E643D000000002564202D57
:1027B000200000002B4950440000000000000000F1
:1027C000AC2E000868B4002068B4002068B4002073
:1027D000AC2E000800000000000000000000000017
:1027E000AC2E000800000000000000000000000007
:1027F000AC2E0008000000000000000000000000F7
:10280000AC2E0008000000000000000000000000E6
:10281000AC2E0008000000000000000000000000D6
:10282000AC2E0008000000000000000000000000C6
:10283000AC2E0008000000000000000000000000B6
:102840006D61696E00164318040444080C101418D6
:10285000001C1D1E00000000000000000000000021
:10286000310A0008510B0008B10A0008C10B00082A
:10287000A10A0008B10B0008210A0008410B00085A
:1028800069646C650000000041542B5253540D0ADA
:102890000000000041542B43574D4F44453D320D3D
:1028A0000A00000041542B43494653520D0A0000D0
:1028B00041542B4349504D55583D310D0A000000FD
:1028C00041542B4349505345525645523D312C38C3
:1028D000300D0A00000000000000000000000000B1
:1028E00000202020202020202020282828282820E0
:1028F00020202020202020202020202020202020D8
:10290000208810101010101010101010101010103F
:10291000100404040404040404040410101010102F
:1029200010104141414141410101010101010101F9
:10293000010101010101010101010101101010104B
:1029400010104242424242420202020202020202CB
:10295000020202020202020202020202101010101F
:102960002000000000000000000000000000000047
:102970000000000000000000000000000000000057
:102980000000000000000000000000000000000047
:102990000000000000000000000000000000000037
:1029A0000000000000000000000000000000000027
:1029B0000000000000000000000000000000000017
:1029C0000000000000000000000000000000000007
:1029D00000000000000000000000000000000000F7
:1029E00000000000000000000000000000000000E7
:0229F0004300A2
:1029F80000C201000000000000000000400D0300BC
:102A080000040000411A000801000000311A000803
:102A180000000000000000000000000000000000AE
:102A2800000000000000000000000000000000009E
:102A3800400D030000040000211A000801000000F6
:102A4800111A00080000000000000000000000004B
:102A5800000000000000000000000000000000006E
:102A680000000000802500000000000000000000B9
:102A7800E02800080000000000000000740B00209F
:102A8800DC0B0020440C00200000000000000000C7
:102A9800000000000000000000000000000000002E
:102AA800000000000000000000000000F0290008FD
:102AB800000000000000000000000000000000000E
:102AC80000000000000000000000000000000000FE
:102AD80000000000000000000000000000000000EE
:102AE80000000000000000000000000000000000DE
:102AF80000000000000000000000000000000000CE
:102B080000000000000000000000000000000000BD
:102B180000000000000000000000000000000000AD
:102B280001000000000000000E33CDAB34126DE64A
:102B3800ECDE05000B0000000000000000000000B3
:102B4800000000000000000000000000000000007D
:102B5800000000000000000000000000000000006D
:102B6800000000000000000000000000000000005D
:102B7800000000000000000000000000000000004D
:042EA8008808002076
:04000005080001C12D
:00000001FF
