:020000040800F2
:1000000000040020C10100080110000801100008D0
:10001000011000080110000801100008011000087C
:10002000011000080110000801100008910C0008E0
:10003000011000080110000801100008011000085C
:10004000011000080110000801100008011000084C
:10005000011000080110000801100008011000083C
:10006000011000080110000801100008011000082C
:10007000011000080110000801100008011000081C
:10008000011000080110000801100008011000080C
:1000900001100008011000080110000801100008FC
:1000A00001100008D10B000801100008B10B000876
:1000B000F10B0008910B0008011000080110000866
:1000C00001100008011000080110000801100008CC
:1000D00001100008D10F0008B10F0008011000083E
:1000E00001100008011000080110000801100008AC
:1000F000011000080110000801100008011000089C
:10010000011000080110000801100008011000088B
:10011000011000080110000801100008011000087B
:10012000011000080110000801100008011000086B
:10013000011000080110000801100008011000085B
:10014000011000080110000801100008011000084B
:10015000011000080110000801100008011000083B
:10016000011000080110000801100008011000082B
:10017000011000080110000801100008011000081B
:10018000011000080110000801100008011000080B
:1001900001100008011000080110000801100008FB
:1001A00001100008011000080110000801100008EB
:1001B00001100008011000080110000801100008DB
:1001C00072B6224880F30988022080F31488BFF3B6
:1001D0006F8F01F0CDFB01F01BF91D481D491E4A30
:1001E00091423CBF41F8040BFAE71C49174A91427F
:1001F0003CBF41F8040BFAE719491A4A1A4B9A42D4
:100200003EBF51F8040B42F8040BF8E700201749F1
:10021000174A91423CBF41F8040BFAE701F070FB2A
:1002200001F09EFB134C144DAC4203DA54F8041B4E
:100230008847F9E702F0F4F8104C114DAC4203DAAC
:1002400054F8041B8847F9E701F082BB000800203E
:1002500055555555000000200004002000040020E2
:100260006831000800080020B40C0020B80C002001
:1002700064B40020C0010008C0010008C0010008EB
:10028000C0010008000000000000000000000000A5
:100290002DE9F04FC1F80CD0C3689D46BDE8F08F42
:1002A000002383F311882846A047002001F0D0FAEC
:1002B00001F006FB00DFFEE7000000000000000088
:1002C00081F0004102E000BF83F0004330B54FEA07
:1002D00041044FEA430594EA050F08BF90EA020F74
:1002E0001FBF54EA000C55EA020C7FEA645C7FEA07
:1002F000655C00F0E2804FEA5454D4EB5555B8BF2A
:100300006D420CDD2C4480EA020281EA030382EA9A
:10031000000083EA010180EA020281EA0303362D2C
:1003200088BF30BD11F0004F4FEA01314FF4801CFF
:100330004CEA113102D0404261EB410113F0004F11
:100340004FEA03334CEA133302D0524263EB4303C8
:1003500094EA050F00F0A780A4F10104D5F1200E66
:100360000DDB02FA0EFC22FA05F2801841F10001C1
:1003700003FA0EF2801843FA05F359410EE0A5F195
:1003800020050EF1200E012A03FA0EFC28BF4CF0C6
:10039000020C43FA05F3C01851EBE37101F000457C
:1003A00007D54FF0000EDCF1000C7EEB00006EEB89
:1003B0000101B1F5801F1BD3B1F5001F0CD3490813
:1003C0005FEA30004FEA3C0C04F101044FEA44526A
:1003D00012F5800F80F09A80BCF1004F08BF5FEAF1
:1003E000500C50F1000041EB045141EA050130BDD1
:1003F0005FEA4C0C404141EB010111F4801FA4F174
:100400000104E9D191F0000F04BF01460020B1FAC8
:1004100081F308BF2033A3F10B03B3F120020CDA00
:100420000C3208DD02F1140CC2F10C0201FA0CF0DE
:1004300021FA02F10CE002F11402D8BFC2F1200C43
:1004400001FA02F120FA0CFCDCBF41EA0C019040F9
:10045000E41AA2BF01EB0451294330BD6FEA040442
:100460001F3C1CDA0C340EDC04F11404C4F120022D
:1004700020FA04F001FA02F340EA030021FA04F33F
:1004800045EA030130BDC4F10C04C4F1200220FA96
:1004900002F001FA04F340EA0300294630BD21FAD4
:1004A00004F0294630BD94F0000F83F4801306BF9A
:1004B00081F480110134013D4EE77FEA645C18BF8E
:1004C0007FEA655C29D094EA050F08BF90EA020F25
:1004D00005D054EA000C04BF1946104630BD91EA1D
:1004E000030F1EBF0021002030BD5FEA545C05D120
:1004F0004000494128BF41F0004130BD14F580045F
:100500003CBF01F5801130BD01F0004545F0FE41D2
:1005100041F470014FF0000030BD7FEA645C1ABF07
:10052000194610467FEA655C1CBF0B46024650EA3E
:10053000013406BF52EA033591EA030F41F400216A
:1005400030BD00BF90F0000F04BF0021704730B5F0
:100550004FF4806404F132044FF000054FF00001C5
:1005600050E700BF90F0000F04BF0021704730B586
:100570004FF4806404F1320410F0004548BF40425B
:100580004FF000013EE700BF42004FEAE2014FEAB0
:1005900031014FEA02701FBF12F07F4393F07F4F8B
:1005A00081F06051704792F0000F14BF93F07F4FBD
:1005B000704730B54FF4607401F0004521F0004100
:1005C00020E700BF50EA010208BF704730B54FF086
:1005D00000050AE050EA010208BF704730B511F08B
:1005E000004502D5404261EB41014FF4806404F1C3
:1005F00032045FEA915C3FF4DCAE4FF003025FEA45
:10060000DC0C18BF03325FEADC0C18BF033202EBCC
:10061000DC02C2F1200300FA03FC20FA02F001FA26
:1006200003FE40EA0E0021FA02F11444C1E600BFC5
:1006300070B54FF0FF0C4CF4E06C1CEA11541DBF78
:100640001CEA135594EA0C0F95EA0C0F00F0DEF843
:100650002C4481EA030621EA4C5123EA4C5350EA28
:10066000013518BF52EA033541F4801143F4801379
:1006700038D0A0FB02CE4FF00005E1FB02E506F00A
:100680000042E0FB03E54FF00006E1FB03569CF05F
:10069000000F18BF4EF0010EA4F1FF04B6F5007F65
:1006A00064F5407404D25FEA4E0E6D4146EB0606D7
:1006B00042EAC62141EA55514FEAC52040EA5E5060
:1006C0004FEACE2EB4F1FD0C88BFBCF5E06F1ED80A
:1006D000BEF1004F08BF5FEA500E50F1000041EB41
:1006E000045170BD06F0004646EA010140EA0200EE
:1006F00081EA0301B4EB5C04C2BFD4EB0C0541EA10
:10070000045170BD41F480114FF0000E013C00F324
:10071000AB8014F1360FDEBF002001F0004170BD48
:10072000C4F10004203C35DA0C341BDC04F1140461
:10073000C4F1200500FA05F320FA04F001FA05F2ED
:1007400040EA020001F0004221F0004110EBD370BA
:1007500021FA04F642EB06015EEA430E08BF20EAE6
:10076000D37070BDC4F10C04C4F1200500FA04F389
:1007700020FA05F001FA04F240EA020001F000411B
:1007800010EBD37041F100015EEA430E08BF20EA8E
:10079000D37070BDC4F1200500FA05F24EEA020ED6
:1007A00020FA04F301FA05F243EA020321FA04F005
:1007B00001F0004121FA04F220EA020000EBD370BC
:1007C0005EEA430E08BF20EAD37070BD94F0000FBC
:1007D0000FD101F00046400041EB010111F4801FF0
:1007E00008BF013CF7D041EA060195F0000F18BFA1
:1007F000704703F00046520043EB030313F4801FDD
:1008000008BF013DF7D043EA0603704794EA0C0F96
:100810000CEA135518BF95EA0C0F0CD050EA4106AC
:1008200018BF52EA4306D1D181EA030101F0004129
:100830004FF0000070BD50EA410606BF1046194651
:1008400052EA430619D094EA0C0F02D150EA01365D
:1008500013D195EA0C0F05D152EA03361CBF10469E
:1008600019460AD181EA030101F0004141F0FE413D
:1008700041F470014FF0000070BD41F0FE4141F4C1
:10088000780170BD70B54FF0FF0C4CF4E06C1CEAC1
:1008900011541DBF1CEA135594EA0C0F95EA0C0F76
:1008A00000F0A7F8A4EB050481EA030E52EA033531
:1008B0004FEA013100F088804FEA03334FF0805552
:1008C00045EA131343EA12634FEA022245EA11157F
:1008D00045EA10654FEA00260EF000419D4208BF30
:1008E000964244F1FD0404F5407402D25B084FEADD
:1008F0003202B61A65EB03055B084FEA32024FF489
:1009000080104FF4002CB6EB020E75EB030E22BFE5
:10091000B61A754640EA0C005B084FEA3202B6EBA5
:10092000020E75EB030E22BFB61A754640EA5C0054
:100930005B084FEA3202B6EB020E75EB030E22BFE4
:10094000B61A754640EA9C005B084FEA3202B6EBE5
:10095000020E75EB030E22BFB61A754640EADC00A4
:1009600055EA060E18D04FEA051545EA16754FEA06
:1009700006164FEAC30343EA52734FEAC2025FEA24
:100980001C1CC0D111F4801F0BD141EA00014FF0B3
:1009900000004FF0004CB6E711F4801F04BF014384
:1009A0000020B4F1FD0C88BFBCF5E06F3FF6AFAEA0
:1009B000B5EB030C04BFB6EB020C5FEA500C50F130
:1009C000000041EB045170BD0EF0004E4EEA1131B3
:1009D00014EB5C04C2BFD4EB0C0541EA045170BDBA
:1009E00041F480114FF0000E013C90E645EA060EFE
:1009F0008DE60CEA135594EA0C0F08BF95EA0C0F2C
:100A00003FF43BAF94EA0C0F0AD150EA01347FF473
:100A100034AF95EA0C0F7FF425AF104619462CE74A
:100A200095EA0C0F06D152EA03353FF4FDAE1046AD
:100A3000194622E750EA410618BF52EA43067FF4FE
:100A4000C5AE50EA41047FF40DAF52EA43057FF48E
:100A5000EBAE12E700000000000000000000000004
:100A60004FEA410212F5001215D211D56FF47873D6
:100A7000B3EB625212D94FEAC12343F0004343EA79
:100A8000505311F0004F23FA02F018BF4042704754
:100A90004FF00000704750EA013005D111F00040DE
:100AA00008BF6FF0004070474FF00000704700BF74
:100AB000024AD36843F08003D3607047004400408B
:100AC000024AD36843F08003D360704700100140AE
:100AD000836970B51A69DC681440E2B2D243A60794
:100AE00005461A6103D543681B6903B1984760073F
:100AF00004D56B689B690BB128469847210704D53C
:100B00006B681B6A0BB128469847E20604D56B68F0
:100B10009B6A0BB128469847E30706D56B689B682C
:100B20001BB12846BDE87040184770BD00000000AA
:100B3000202383F311880F4B5B6813F4006302D109
:100B400083F311887047EFF309834FF0807243F805
:100B5000042CA3F1200282F30988074A11689269E4
:100B60008968926891428CBF044A054A43F8082C70
:100B7000704700BF00ED00E0D0B20020B1020008D5
:100B8000B4020008000000000000000000000000A7
:100B900008B50348FFF79CFFBDE80840FFF7C8BF52
:100BA000ACB20020000000000000000000000000C7
:100BB00008B50348FFF78CFFBDE80840FFF7B8BF52
:100BC0008CB20020000000000000000000000000C7
:100BD00008B50348FFF77CFFBDE80840FFF7A8BF52
:100BE0008CB20020000000000000000000000000A7
:100BF0002DE9F8434FF080452B699B0703D4BDE8EE
:100C0000F843FFF795BF00272F61202686F3118850
:100C1000DFF87890696AD9F81C30D9F828E09A682A
:100C2000CEEB0100904209F11C081CD31968DC6866
:100C300072444145C9F82820C1F80480C9F81C1045
:100C4000DF6008BFEF6087F311881869A04786F35B
:100C50001188D9F81C30696AD9F828E09A68CEEB77
:100C600001008242E2D9434508D07244521A012A57
:100C700098BF02224FF080430A445A63002383F353
:100C80001188BDE8F843FFF753BF00BFD0B2002082
:100C9000EFF30983203383F30988002383F311885A
:100CA000704700BF000000000000000000000000CE
:100CB00010B4202383F31188094C0A4B2268196869
:100CC000C31D23F00703891A8B429DBF9B18236025
:100CD00010460020002383F311885DF8044B704711
:100CE000C8B20020A8B200200000000000000000F0
:100CF00010B4202383F31188037F072B0ED8DFE87D
:100D000003F0270D0D2308040D08026A93680133D0
:100D1000936090E80C001A60026853604FF0FF3453
:100D2000002281680D4B046202771B689A688A4230
:100D3000FBD25A684260036000211060586081F362
:100D400011885DF8044B7047036A00221A60E5E7DA
:100D5000002383F311885DF8044B7047D0B2002064
:100D600000228168084B10B4044602771B689A6819
:100D70008A42FBD25A6862602360204614605C603D
:100D80005DF8044B704700BFD0B2002000000000A7
:100D9000F8B50468A04221D00E460746002502E0BF
:100DA0002468A7421AD0E3683343E36016B122698E
:100DB0001342F5D06068A368416B027F0B430A2A97
:100DC00043630CD00B2AEBD1026A13409A42E7D15D
:100DD0000562FFF7C5FF2468A742E4D1F8BD026AA7
:100DE0001342DDD00562FFF7BBFFF4E7000000000F
:100DF00044F674632DE9F047C658D6F80CA0336862
:100E0000DA0582B005469CB200F18280202383F38C
:100E1000118814F02F0F4AD005F1040805F10C07D2
:100E20004FF0000907E0A00673681DD43468A4B22F
:100E300014F02F0F3BD02307F5D014F0080F0CBF90
:100E400000218021E00748BF41F02001A20748BFF0
:100E500041F04001630748BF41F480714046FFF70D
:100E600097FFA0067368E1D56A69002A3ED02A6A16
:100E7000696A8A4244D06969501C013128626961FB
:100E800013702A6AEB699A4201D3AB692B62EB6853
:100E90009F42CBD01A68EA6018465760C3F820908A
:100EA000FFF75EFF3468A4B214F02F0FC3D1002304
:100EB00083F311881AF0800F01D0220637D463061D
:100EC00011D5202383F31188AA6C6B6C9A4254D0FD
:100ED0004FF6BF730AEA03036FF04002F36000238A
:100EE000326083F3118802B0BDE8F08704214046E8
:100EF0000193FFF74DFF2A6A696A019B8A42BAD1C2
:100F000069690029B7D040468021FFF741FF8DE78E
:100F1000202383F311884FF400710430FFF738FF6A
:100F20006FF480733360002383F311886EE720230E
:100F300083F31188AB6C6A6C9A4226D0AA6B296C39
:100F4000581C0132AA63A86488421F7801D3EB6B56
:100F5000AB642B6B05F13002934209D01968296309
:100F60004FF0000E4A601846C3F820E0FFF7F8FE85
:100F70007760002383F31188A1E7AB6B002BA7D028
:100F8000281D1021FFF704FFA2E7AA6B002AD5D085
:100F9000281D0821FFF7FCFE4FF63F730AEA030302
:100FA00043F04003F360E4E70000000000000000AD
:100FB00008B50348FFF71CFFBDE80840FFF7B8BDC0
:100FC0000864002000000000000000000000000095
:100FD00008B50348FFF70CFFBDE80840FFF7A8BDC0
:100FE000901500200000000000000000000000003C
:100FF000FEE700BF0000000000000000000000004D
:10100000FEE700BF0000000000000000000000003C
:10101000074B30B41A689969146808770125636032
:1010200015771C60104630BC9A61FFF731B900BFDC
:10103000D0B200200000000000000000000000000E
:10104000F0B54B1C87B047D03E4C3F4AA36905938F
:101050002546012955F81C3F4FF0804C98BF0221CE
:10106000AB42DCF824600492864655D0A26A9868A8
:1010700031448A1A824238BFCCF83410824204D9F3
:101080001B68121A98689042FAD35968029101AF0E
:1010900001930F605F60039299684FF0FF308A1AE6
:1010A0009A6060627046FFF7B3FF049B83B1E36907
:1010B000244ABB4217D0029A019B1360019B002176
:1010C000AB425A60049103D09968039A0A449A602B
:1010D000A369186A07B0F0BD1A4CFFF799FFA3691E
:1010E000186A07B0F0BD0199D1610023A9424D6093
:1010F000049322D003988B68926A03444FF0804097
:101100008B60416A8A1A9342E2D99B1A012B98BFDD
:1011100002230B444363DBE701AF8819002202235B
:10112000A662019502950391E7612762CCF834002D
:10113000CCF81020CCF80C30B4E74FF08042D360EC
:10114000C6E700BFD0B20020F10C0008000000008C
:1011500069B1084B10B4024644689B69042083E8D7
:101160001400236053605DF8044BFFF769BF4FF034
:10117000FF307047D0B200200000000000000000E7
:101180002DE9F04F83B004468B4615460193C7699D
:101190004FF0200888F311880026B146A3680BF1B0
:1011A000010A2046FBB16269A368511C013B6161E1
:1011B000A3609BF800301370236962699A4224BFD0
:1011C000E368636107B1B84789F31188013D06F10F
:1011D000010612D088F31188A368D3460BF1010AE7
:1011E0002046002BDFD1204601990093FFF7B0FF86
:1011F000009B0028D2D083F31188304603B0BDE8AD
:10120000F08F00BF000000000000000000000000A0
:101210003030FFF7B5BF00BF000000000000000045
:1012200030304FF0FF33FFF7ABBF00BF00000000CE
:10123000F8B504460F461646202383F3118803E0D1
:10124000FFF786FF002819DBA56820463146002DF0
:10125000F6D06269A368511C013B6161A3601770FD
:10126000236962699A4224BFE3686361E3690BB151
:1012700020469847002080F31188F8BD85F3118837
:10128000F8BD00BF000000000000000000000000EA
:101290003030FFF7CDBF00BF0000000000000000AD
:1012A00030304FF0FF32FFF7C3BF00BF0000000037
:1012B0002DE9F04F044683B0894693461D46D0F889
:1012C0001C80202787F3118800260197B246B8F1C9
:1012D000000F05D02046C04702E0FFF739FFE0B914
:1012E000A76820462946002FF7D0A269A368511CA1
:1012F000013BA161A360137809F8013B2369A2694E
:101300009A4224BFE368A3618AF311880136B3458A
:1013100005D0019B83F31188D9E787F31188304604
:1013200003B0BDE8F08F00BF000000000000000027
:101330000C30FFF7BDBF00BF000000000000000040
:101340000C304FF0FF33FFF7B3BF00BF00000000C9
:1013500070B520230E46044683F31188C3692BB170
:10136000984703E0FFF7F4FE002815DBA568204648
:101370003146002DF6D0A169A36825694A1C013BBE
:10138000AA42A360A26128BFE368087828BFA361CE
:10139000002383F3118870BD85F3118870BD00BFF1
:1013A0000C30FFF7D5BF00BF0000000000000000B8
:1013B0000C304FF0FF31FFF7CBBF00BF0000000043
:1013C0000B7873B110B40022441E04F8013F11F8E9
:1013D000013F0132002BF8D1002383545DF8044B08
:1013E00070471A4600238354704700BF0000000076
:1013F00003783BB10346002013F8012F0130002A87
:10140000FAD1704718467047000000000000000045
:101410002849294B4FF080504FF4004208641A606D
:101420000B6843F001030B600A68224B9207FBD55F
:101430009A6822F003029A609A689A6019468B684B
:101440001C4A13F00C03FAD1116801F0F901116084
:101450009360536F43F001035367536F1549980727
:10146000FBD5164B4B600B68134A43F080730B603F
:1014700053685904FCD50F490A680E4B9201FBD5FD
:101480000F4A1049996040F2027111609A6842F067
:1014900002029A601A469368064903F00C03082B6F
:1014A000F9D14B6C43F480434B644B6E43F480435F
:1014B0004B6670470038024000700040105401072E
:1014C000003C0240001088380000000000000000CE
:1014D0000378012BF0B552D0836900221A605A6359
:1014E0009A63DA631A645A6241688468CA680E684B
:1014F0004069CD6AB0FBF6F002F00F02013C013802
:10150000012A9862DC625D6037D0022A33D142F052
:101510000102486900F00F00012829D0022825D0D7
:10152000C86900F00F0001281DD0022819D0486AB0
:1015300000F00F00012803D0022803D142F400522A
:1015400042F48052096B1A62012521F0FF02002447
:101550004FF4004085215D611C61DA6058641960B8
:10156000F0BD42F4007242F48072E0E742F02002E3
:1015700042F01002D4E70022CBE70022C7E7214B5C
:10158000984208D0204B984225D0836946F66802DD
:101590009A61DA61A8E71D4A1D4B516C1D4F41F05D
:1015A00001015164516A70254FF000764FF00064DC
:1015B0004FF0000E41F001015162C2F824E083F8BF
:1015C0001953C3F880611E6083F81B53C3F8804130
:1015D0001C604761D9E70D4B0D4A196C0D4D41F068
:1015E00002011964196A4FF00054002741F002010A
:1015F000702619621F6282F81D63C2F88041146070
:101600004561C2E78CB20020ACB200200038024035
:1016100000E100E000BD0105000000000000000046
:101620002DE9F04FC2F3411C02F0030EC2F3800912
:10163000C2F3C1080027C2F3C3124FF00F0B4FF0E3
:10164000010A0FE0046A24EA03031D430562490806
:1016500039D04FEA49094FEA88084FEA8C0C4FEA23
:101660008E0E0137CB07F2D543680AFA07F423EA56
:10167000040343EA0903436003257C00836805FAF9
:1016800004F4E443234043EA08038360C56807F099
:101690000703254045EA0C059B00BEF1020FC5601B
:1016A00002FA03F50BFA03F30FD00668344044EA5C
:1016B0000E04072F0460C5D9446A24EA03031D43BE
:1016C00049084562C5D1BDE8F08F072F0AD8066AE0
:1016D00026EA03031D43056203681C4044F002042C
:1016E0000460B4E7466A26EA03031D434562F3E754
:1016F00070B4202383F311882B4C027A002908BF91
:101700002146012A29D044F67463284AC3589342DB
:1017100037D002F58062934233D00C68244AB2FB82
:10172000F4F29A608A88CC88098942F4045244F021
:10173000400442F02C0241F00101A4B292B289B2FD
:1017400000251C6159610224DA601D601A685B681B
:10175000047285F3118870BC7047164A904216D007
:10176000154B9842CFD1154D154B2A6C4024C026FD
:1017700042F400322A6483F82663C3F884415C6033
:10178000C1E70C680F4AB2FBF4F29A60CAE70B4D4E
:101790000B4A6C6CC02644F010046C6482F825631C
:1017A000C2F884315360AEE7102F000800100140EA
:1017B00080DE80029015002008640020003802407E
:1017C00000E100E000BD0105000000000000000095
:1017D000202383F311888369DA68D10706D442F0A5
:1017E0000102DA601A6902F001021A61002383F330
:1017F0001188704700000000000000000000000099
:101800000E4B0F495A688368F0B44F6F4168C66841
:10181000D0E90445D31ADB1BE4180268836045F164
:1018200000058B4206F1010688BF43609342C66003
:10183000C0E9044538BF0360F0BC7047001000E009
:10184000D0B20020000000000000000000000000F6
:1018500038B52022034682F311880E4A9469606AE3
:10186000236204F12405A84206D003686362FFF7EF
:1018700077FA606AA842F8D1637F9B0704D1636955
:1018800022691A61226953610F20BDE83840FFF7D1
:10189000BFBB00BFD0B2002000000000000000006D
:1018A00008B50146202383F311880820FFF7C8FB01
:1018B000002383F3118808BD000000000000000031
:1018C0000D4A106870B403689469136001260025FE
:1018D000A1685A6006779061257700E01B689A68D6
:1018E0008A42FBD85A6862602360214614605C60BB
:1018F00070BCFEF7CDBC00BFD0B2002000000000DD
:10190000F0B4114E002506F1800796E81A00A342B4
:101910000DD204391A4651F8040F42F8040BA242C2
:10192000F9D3DA43144424F0030404342344F26862
:10193000934203D243F8045B9342FBD31036BE427A
:10194000E3D3F0BC704700BF302F00080000000058
:10195000FEE700BF000000000000000000000000E3
:10196000704700BF00000000000000000000000001
:10197000704700BF000000000000000000000000F1
:10198000F0B5514E96E80700ADF54F7D06AD85E800
:1019900007000021582209A801F05AF806F1640353
:1019A00093E8030038AF87E803004FF41472002176
:1019B00006F52F763AA801F04BF896E80700DFF815
:1019C0001CE101AE03C69EF80010327000246329AA
:1019D0008DF80D408DF80E408DF80F408DF81040B9
:1019E0008DF811408DF812408DF813408DF8144099
:1019F0008DF815408DF816408DF817405ED001A97E
:101A0000384601F005F831490DF12300FFF7D8FC05
:101A10002846FFF7EDFC2E4A2E49137809882952F3
:101A20002BB1002312F8011F01330029FAD11FA99D
:101A3000DFF8ACC00E468E4600278CFB0324DA1775
:101A4000C2EBA40202EB8204A3EB440330330EF892
:101A5000013B01371346002AEFD1CA550F780C46D7
:101A60000FB915E0734614F8012F03F1010E002A97
:101A7000F8D16BB1CC1800E0377894F800E006F8A4
:101A800001EB0132C2EB030E964504F80179F3DC59
:101A900001302844FFF794FC2846FFF7A9FC0E4BC1
:101AA0002A1819889B7829522846937000F0A8FCC0
:101AB000074800F0A5FC0DF54F7DF0BD0DF1E700E6
:101AC0000349FFF77DFC9AE7402C0008B80C002082
:101AD000BC0C0020202F000824300008C50C00207A
:101AE000676666660000000000000000000000005D
:101AF0002DE980488BB000AFADF5806D6D46202399
:101B000083F31188864E874CB369BB6107F12803C4
:101B1000626843F8142D01204FF0FF310022F86174
:101B2000796263603A6282F31188DFF848820DEBD4
:101B300000037B604FF020094FF0010AAB460EE036
:101B40006FF001010A4000236A6383F3118889F36F
:101B500011883A6A3B6283F3118852070FD4B56942
:101B600089F311886A6BD107EAD4C5F820A00A204E
:101B7000FFF74EFA6A6B02F00101C943E2E75D46E6
:101B80009A46236867485B6900219847814601208F
:101B9000FFF786FEB9F1FF3F07D0BAF5806FF0DAA4
:101BA00005F80A900AF1010AEBE7002305F80A306C
:101BB0007A685D4B13F8011F944601320029F9D170
:101BC0009CF80030002BB5D02B461A782B2A16D162
:101BD000554A9E4604E012F8010BA0B1814206D19D
:101BE0001EF8011F10460029F5D102785AB11CF8E1
:101BF000012F0133002A9DD01A782B2AE8D04B48B8
:101C00000278002AF3D14A4A187C1070494A59795F
:101C10001170002193F8129093F813B093F814A068
:101C200093F815C093F816E0517088F808101A7EE2
:101C3000D97D5B7E88F80090632888F801B088F829
:101C400002A088F803C088F804E088F8051088F836
:101C5000062088F8073002D0FFF792FE6AE707F106
:101C60000C0087F80CA087F80DC087F80EE03974D7
:101C70007A74BB7400F03CFF834607F1100000F05B
:101C800037FFBBF17F0F824634DD2B4B2B4A1A60A6
:101C90002B4B2C4AABF180001A60FEF763FC1EA3AD
:101CA000D3E90023FEF7C4FC0022274BFEF70EFB0E
:101CB000FEF7D6FE0146254800F092FBBAF17F0FF1
:101CC0001FDC234B234A1A60234B244A50461A60D8
:101CD000FEF748FC10A3D3E90023FEF7A9FC00227D
:101CE000194BFEF7F3FAFEF7BBFE01461C4800F065
:101CF00077FBB1E7104B1B4A1A605846104B1A4A43
:101D0000CAE7134B194A1A60AAF18000124B184A0D
:101D1000DDE700BFAFF30080CDCCCCCCCC7C534012
:101D2000D0B2002090150020252F0008242F000895
:101D3000C50C0020B80C002040B40020811E000813
:101D400080B20020B11E0008000059408CB2002073
:101D500084B20020B11F000888B20020811F000853
:101D6000ACB2002011200008E11F0008E11E0008AD
:101D7000111F0008BC0C0020000000000000000043
:101D8000014B5B6883607047001000E000000000BA
:101D90002DE9F0410546174B45F8043B00F59C44FE
:101DA00000F51D53243300F154024FF0000E00F1F2
:101DB0000C0700F130064FF0010842F2107C743439
:101DC000C0F814E04560C062C164006580F8088016
:101DD000C0F828E0C0F838C00464C361C3638364FA
:101DE0004364826142620262C760076106634663C0
:101DF000BDE8F081D02F00080000000000000000C6
:101E0000202383F311888269D368990705D443F0AE
:101E100002036FF00201D3601161002383F3118884
:101E2000704700BF0000000000000000000000003C
:101E3000F0B400F10B073C460D46B1FBF2F602FB95
:101E4000161101F13003392BC8BF01F13703DBB2A2
:101E500004F8013DB5FBF2F53146002DEDD13A1BFA
:101E6000024401E014F8013F00F8013B9042F9D12F
:101E7000F0BC7047000000000000000000000000FF
:101E8000084B10B4DA685C6898681968012303FA93
:101E900002F2A34092B29BB242830B835DF8044BE3
:101EA000704700BF44B400200000000000000000A4
:101EB000084B10B4DA685C6898681968012303FA63
:101EC00002F2A34092B29BB242834B835DF8044B73
:101ED000704700BF44B40020000000000000000074
:101EE000084B10B45A69DC6918699969012303FA2F
:101EF00002F2A34092B29BB202834B835DF8044B83
:101F0000704700BF44B40020000000000000000043
:101F1000084B10B45A69DC6918699969012303FAFE
:101F200002F2A34092B29BB242834B835DF8044B12
:101F3000704700BF44B40020000000000000000013
:101F4000014B1B68184700BF84B20020000000004E
:101F5000014B1B68184700BF88B20020000000003A
:101F6000014B1B68184700BF40B400200000000070
:101F7000014B1B68184700BF80B200200000000022
:101F8000084B10B45A69DC6918699969012303FA8E
:101F900002F2A34092B29BB242834B835DF8044BA2
:101FA000704700BF44B400200000000000000000A3
:101FB000084B10B45A69DC6918699969012303FA5E
:101FC00002F2A34092B29BB242830B835DF8044BB2
:101FD000704700BF44B40020000000000000000073
:101FE000084B10B45A68DC6818689968012303FA32
:101FF00002F2A34092B29BB242834B835DF8044B42
:10200000704700BF44B40020000000000000000042
:10201000084B10B45A68DC6818689968012303FA01
:1020200002F2A34092B29BB242830B835DF8044B51
:10203000704700BF44B40020000000000000000012
:10204000144B816870B49D690446A86800228142DF
:1020500022620BD822771B689A689142FBD95A6892
:102060006260236014605C6070BC70472A771A4617
:10207000126891688842FBD95068686001262A601E
:10208000056055602677294620469C6170BCFEF7A6
:10209000FFB800BFD0B20020000000000000000028
:1020A0000EB42DE9F04F86B00FAD0DF10D0303AA6C
:1020B00055F804AB02959B1A4FF000080193CDF838
:1020C00000809AF800100AF1010391B1252918D077
:1020D000DFF8FC82009AD8F800009A468468013242
:1020E00040460092A0479AF800100AF10103002927
:1020F000ECD1DDF80080404606B0BDE8F04F03B0FB
:1021000070479AF801202D2A03BF9AF802200AF19D
:10211000020301270027302A03BF5A7801333024F5
:102120002024591C002606E02B7804359AF800205C
:1021300003EB40060131A2F13003DBB2092B8A46E2
:1021400006EB8600F2D92A2AEED02E2A4FF00001A3
:1021500043D002F0DF034C2B4ED0A2F144003428D0
:1021600000F20481DFE810F0F70002010201020131
:102170000201F70002010201020102010201F50061
:1021800002010201020102010201E9000201020151
:10219000FF0002010201020102010201020102012B
:1021A000020102010201BE00F70002010201020168
:1021B0000201F70002010201020102010201F50021
:1021C00002010201020171000201E90002010201A3
:1021D000FF002B78043503EB40011AF8012BA2F124
:1021E0003003DBB2092B01EB8100F4D92A2AF0D0AD
:1021F00002F0DF034C2BB0D19AF80030002B00F036
:10220000B580A3F144020AF1010A342A00F2AD803C
:10221000DFE802F0A1ABABABABA1ABABABABAB9F21
:10222000ABABABABAB93ABABA9ABABABABABABAB18
:10223000ABABAB68A1ABABABABA1ABABABABAB9F51
:10224000ABABAB1BAB93ABABA900D5F800905F4B2E
:10225000B9F1000F08BF9946043599F800300029FC
:1022600000F09E80002B00F0A0800139484601E07C
:10227000013903D410F8013F002BF9D1C9EB00005C
:10228000361A431E202426EAE676002F39D01F1E78
:1022900016DBDFF83C81BB46D8F800304C489B6821
:1022A00019F8011B0BF1FF3B9847BBF1FF3FF3D13E
:1022B000009B03F101084346002FA8BFDB190093E0
:1022C000002E3FF4FEAEDFF808813746D8F8003024
:1022D0003F489B6821469847013FF7D1009B334414
:1022E0000093EEE62B688DF80C30019B0435184600
:1022F0002024013B0DF10C09361A26EAE676002F60
:10230000C5D11F46C6F1000BBBF1000F36D099F8BE
:102310000010DFF8BC802D2934D05E46D8F800309C
:102320002B489B68214698470136F7D1009B002F28
:10233000CBEB03030093AEDAC3E60A22296803A8B5
:102340000435FFF775FD03ABC01A431E0DF10C09F0
:10235000D2E70822F2E72968002905F104052BDB02
:1023600003A80A22EDE71022E8E71A46019B8DF840
:102370000C2018460DF10C09013BBDE7002F5E460D
:1023800087DA9EE6302CC8D1D8F8003040469B68EA
:102390009847009B013309F101090093013FBCE715
:1023A00047F6FE71002B7FF461AF26EAE67657B957
:1023B0004FF0FF372024A5E72D2349428DF80C303C
:1023C0000DF10D00CDE720247AE700BFF02F0008C3
:1023D0009015002000000000000000000000000038
:1023E000202383F31188C368826943F00103C3602B
:1023F0000023516383F31188704700BF0000000081
:1024000008B501460448FFF74BFE41F28830BDE8AD
:102410000840FFF745BA00BF9015002000000000FB
:10242000B94BBA4C1A694FF0FF3100222DE98048B0
:1024300019611A61586959615A61186A60F08050CF
:1024400018621A62586A59625A62196C41F08051D6
:102450001964216841F480712160196F01F44071A1
:10246000B1F5007F8BB003D04FF4803119671A6744
:10247000DFF898E2A44CDEF80450DFF8F892A44E9E
:10248000DFF8F4B2A348A44BA449A54ADFF8EC82D4
:10249000A44F25F40075CEF80450256B45F01F05B8
:1024A0002563D4F850C000254CF01F0C6FF48A6EE1
:1024B000C4F850C04FF6DF7AC9F804504FF4EE4C20
:1024C000C9F808E0984CC9F80CB04FF42A2EC9F8A6
:1024D00014A04FF0FF3BC9F820C0C9F824E04FF02A
:1024E000553CC9F800404FF6FF7E80247560C6F861
:1024F00008B0C6F80CC0C6F814E0356275623460E6
:102500008A4C4560C0F808B0C460C0F814E00562A9
:10251000456205605D60C3F808B0C3F80CC0C3F83D
:1025200014E01D625D621D604D60C1F808B0C1F825
:102530000CC0C1F814E00D624D620D607C4955601D
:10254000C2F808B0D160C2F814E015625562156097
:10255000A2F58E320123DFF828C2C8F8182075488A
:102560007549C7F818C04FF0040244F6746A88F839
:10257000003088F810203B7001933A74C8F804507A
:10258000C8F80C507D60FD60FFF702FC694B6B4A98
:102590006B496C4843F80A20FFF7FAFB5A4BDFF807
:1025A000E4E1186C684A6949DFF8DCC140F00100D9
:1025B0001864DEF80800019B40F00100CEF8080026
:1025C0004FF0804042F2CF048462C0F82CB04FF04C
:1025D000805485614563C560456043610360039332
:1025E0006FF07F0381F81C33C1F88041554B0C60BC
:1025F0009560D2F80CE0564943F80A104FF6FF01F7
:102600000EEA010141EA0C0C524BC2F80CC0D96829
:10261000514C5248646041F08071D9600168A560F6
:1026200041F001014FF0200A4FF01003016004F166
:102630001C0ED37704A80023246182F822A0002274
:10264000C4F824B024606461C4F81CE0CDE9082318
:10265000C4F820E0CDF810B0A56265670595069531
:102660000795FFF78DFB04A8FFF7CAF83C483D49E2
:10267000DFF818B13C4A84F84D5020F00700019073
:10268000606960640198CBF8000021F0070360697D
:102690000699029302F1100E039B61674FF0400C04
:1026A00004F130019561C2F810E0C2F814E0A566AB
:1026B000656684F84E30A5642464C4F838C0C4F854
:1026C0006CC0DFF8CCE0016104F154006161A161EC
:1026D00026499560D5606065116004F15800029A42
:1026E000CDF80CC084F84C30A065E0654FF0020BCB
:1026F000CEF8002085F3118862B6A2691C49916169
:102700008AF3118846E000BF0038024000700040A4
:102710000004024000080240000C02400010024089
:10272000001C0240ACB20020A004802A555555512F
:102730005055555590150020C10A00080010014061
:10274000B10A00080864002000ED00E000E100E0AC
:1027500000440040F0ED00E0D0B20020001000E0A6
:102760006FB400200080012020B40020B10C0008CC
:10277000B02F000800000240055115648CB2002003
:1027800000040040002004E00003FA05C8B2002065
:10279000A8B200206169C4F8803004F59672C4F8CC
:1027A000B43084F89630C4F88420019304F17802A0
:1027B0007C4B7D48C4F82C01C4F88C10C4F830510F
:1027C00084F894B084F89550C4F8B050C4F8AC5074
:1027D000C4F89050C4F88840C4F84C3110460A61DF
:1027E00004F19C01626104F1A002C4F89C10C4F8D9
:1027F000A020C4F8A420FFF723FC85F311886B4ABE
:10280000C4F890206A496B48FEF772FF48464FF4BF
:10281000007140F28232FEF703FF484640F28232F6
:102820004FF48061FEF7FCFE63486449FEF760FFE9
:102830008AF31188624A5B4B6069C2F8C438614907
:10284000019BDDF80CC09377C2F8A41802F12803AD
:1028500002F6A40E02F124015061C2F8A85882F8D1
:102860001CB05577C2F83CC09563556395611461FF
:10287000C2F808C00261C2F80CE0104651629362CF
:10288000D3626261FFF7DCFB85F311884E48FFF7E6
:10289000B7FD4E48FFF7B4FD4D48FFF7B1FD4D4879
:1028A000FFF7AEFD4C48FFF7ABFD4C4B04244FF057
:1028B000080C4FF00A0E48465C614FF480711922F3
:1028C0000524C3F804C0C3F80CE0C3F800909E6070
:1028D0001E619E61DC61FEF7A3FE4FF48073A9F8D0
:1028E0001A3030464FF480611922FEF799FE4FF4FA
:1028F00080637383304610211922FEF791FE4FF05A
:1029000010037383304651461922FEF789FE344C7A
:10291000DFF8E8C03349344BDFF8E490DFF8E4E057
:102920003248334AA6F81AA0CCF80090C4F800E068
:1029300008601A608AF311882E4BC8F804304046AC
:102940005B68C8F80830FEF7C3FDC8F80C5088F87B
:1029500000B085F311884046FEF73AFF404629460D
:10296000FFF73EFD4046FFF74BFA8AF31188224BF2
:102970007B6038465B68BB60FEF7AAFDFD6087F8A8
:1029800000B085F311883846FEF722FF3846294605
:10299000FFF726FD3846FFF733FA4FF47A70FEF75B
:1029A0007FFFFAE7A1020008F10F0008F82F0008E6
:1029B000680800200864002090150020740800209A
:1029C000C80C0020F11A0008003000080C30000884
:1029D0001C300008283000083830000844B40020BB
:1029E00080B2002084B2002088B20020E11E0008DE
:1029F000111F0008340800200008002040B4002007
:102A0000811E0008B11E0008000000000000000048
:102A1000027830B432B10346002213F8014F01327C
:102A2000002CFAD10B784BB18518002405F8013B36
:102A300011F8013F0134002BF8D1224400238354C4
:102A400030BC7047000000000000000000000000E3
:102A500070B4840746D0541E002A41D0CDB203463C
:102A600002E0621EE4B3144603F8015B9A07F8D152
:102A7000032C2ED9CDB245EA05250F2C45EA054594
:102A800019D903F110022646103E0F2E42F8105CB1
:102A900042F80C5C42F8085C42F8045C02F1100257
:102AA000F2D8A4F1100222F00F0204F00F04103249
:102AB000032C13440DD91E462246043A032A46F835
:102AC000045BFAD8221F22F003020432134404F0FC
:102AD00003042CB1C9B21C4403F8011BA342FBD16F
:102AE00070BC704714460346C2E700BF00000000F8
:102AF00000210A2200F094B800000000000000004D
:102B00002DE9F04F444C83460E46D4F800E000E037
:102B10002646344614F8015B0EEB0500407800F0C1
:102B2000080000F0FF080028F2D12D2D4BD02B2DEE
:102B300004BF7578B41C1BB1102B60D09A4603E01B
:102B4000302D54D00A239A46B8F1000F14BF4FF02D
:102B500000406FF000400027B0FBFAF9BC460AFBCA
:102B600019000CE0303DAB4219DD7E1C05D0CC4590
:102B700024D821D00AFB0C5C012714F8015B0EEB72
:102B80000506767816F0040FECD116F0030606D091
:102B9000012E0CBF37265726AD1BAB42E5DC7B1C54
:102BA00016D0C8F100008CEA000040444AB107B1D9
:102BB000611E1160BDE8F08F8542DBDD4FF0FF370D
:102BC000DBE7BDE8F08FB41C75784FF00108B2E781
:102BD000B8F1000F4FF0220314BF4FF000406FF028
:102BE0000040CBF80030002AE2D1BDE8F08F237816
:102BF00003F0DF03582B09D008239A46A4E7302DB1
:102C00009CD1207800F0DF00582897D14FF0100AAF
:102C100065785346023497E78008002000000000E2
:102C200030B4044C0D46134601462A46206830BC99
:102C3000FFF766BFB00C002000000000000000009D
:102C400041542B43495053454E443D000000000081
:102C50000000000000000000000000000000000074
:102C60000000000000000000000000000000000064
:102C70000000000000000000000000000000000054
:102C80000000000000000000000000000000000044
:102C90000000000000000000000000000000000034
:102CA000000000003C68746D6C3E5F000000000096
:102CB0000000000000000000000000000000000014
:102CC0000000000000000000000000000000000004
:102CD00000000000000000000000000000000000F4
:102CE00000000000000000000000000000000000E4
:102EF0000000000000000000000000005F3C2F68A0
:102F0000746D6C3E00000000000000000000000036
:102F100000C20100000000400000000000000000AE
:102F20002C0000002B49504400000000000000006D
:102F30001C36000864B4002064B4002064B400208F
:102F40001C36000800000000000000000000000027
:102F50001C36000800000000000000000000000017
:102F60001C36000800000000000000000000000007
:102F70001C360008000000000000000000000000F7
:102F80001C360008000000000000000000000000E7
:102F90001C360008000000000000000000000000D7
:102FA0001C360008000000000000000000000000C7
:102FB0006D61696E00164318040444080C1014185F
:102FC000001C1D1E000000000000000000000000AA
:102FD0002112000841130008A1120008B1130008D3
:102FE00091120008A1130008111200083113000803
:102FF000286E756C6C29000069646C650000000027
:1030000041542B5253540D0A0000000041542B43ED
:10301000574D4F44453D320D0A00000041542B43AB
:10302000494653520D0A000041542B4349504D5517
:10303000583D310D0A00000041542B43495053457F
:10304000525645523D312C38300D0A000000000028
:103050000020202020202020202028282828282068
:103060002020202020202020202020202020202060
:1030700020881010101010101010101010101010C8
:1030800010040404040404040404041010101010B8
:103090001010414141414141010101010101010182
:1030A00001010101010101010101010110101010D4
:1030B0001010424242424242020202020202020254
:1030C00002020202020202020202020210101010A8
:1030D00020000000000000000000000000000000D0
:1030E00000000000000000000000000000000000E0
:1030F00000000000000000000000000000000000D0
:1031000000000000000000000000000000000000BF
:1031100000000000000000000000000000000000AF
:10312000000000000000000000000000000000009F
:10313000000000000000000000000000000000008F
:10314000000000000000000000000000000000007F
:10315000000000000000000000000000000000006F
:0231600043002A
:1031680010270000F4010000511F000801000000B2
:10317800411F0008000000000000000000000000DF
:103188000000000000000000000000000000000037
:103198000000000010270000F4010000711F000863
:1031A80001000000611F000800000000000000008E
:1031B8000000000000000000000000000000000007
:1031C8000000000000000000802500000000000052
:1031D8000000000000C20100000000000000000024
:1031E800503000080000000000000000740B0020B0
:1031F800DC0B0020440C0020000000000000000050
:1032080000000000000000000000000000000000B6
:10321800000000000000000000000000603100080D
:103228000000000000000000000000000000000096
:103238000000000000000000000000000000000086
:103248000000000000000000000000000000000076
:103258000000000000000000000000000000000066
:103268000000000000000000000000000000000056
:103278000000000000000000000000000000000046
:103288000000000000000000000000000000000036
:1032980001000000000000000E33CDAB34126DE6D3
:1032A800ECDE05000B00000000000000000000003C
:1032B8000000000000000000000000000000000006
:1032C80000000000000000000000000000000000F6
:1032D80000000000000000000000000000000000E6
:1032E80000000000000000000000000000000000D6
:0436180088080020FE
:04000005080001C12D
:00000001FF
